:020000040000FA
:0400000007EF00F016
:0A00080057823EED14F099EF14F05A
:100600000048656174696E672050726F636573732B
:1006100020002D2D2D2D2D2D2D2D2D2D2D2D2D2D44
:100620002D2D0048656174696E672066696E697377
:1006300068656400446F6F725F53743A20204F7096
:10064000656E656400446F6F725F53743A20204397
:100650006C6F73656400496E736964655F53743AC7
:100660002020466F6F6400496E736964655F537440
:100670003A4E5F466F6F6400233A50617573652090
:1006800023233A53746F700054656D706572617402
:100690007572653A00505245535320272327207422
:1006A0006F0072657475726E20686F6D65005765B6
:1006B0006C636F6D6520746F005357494654204139
:1006C0004354004D6963726F576176650054696DDC
:1006D00065723A0030303A30300054696D653A0046
:0706E0005F5F3A5F5F00005D
:1006E8006DEC14F0A6EC0FF04F6E0A0E4F607FEF22
:1006F80003F081EF03F058EF04F039EF04F04F50A6
:10070800300F556E452A010E0D6E0B0EFAEC10F0E7
:10071800510E126E000E136E0FEC14F04FC040F025
:10072800416A4CEF05F055C054F04F50300F556EEC
:10073800452A010E0D6E0E0EFAEC10F054509FEC87
:100748000BF055509FEC0BF040C00EF041C00FF07D
:10075800000E116E0A0E106ECCEC14F04F500E24E1
:10076800406E000E0F20416E4CEF05F054C052F061
:1007780055C054F04F50300F556E452A010E0D6E7E
:100788000B0EFAEC10F0510E126E000E136E0FECF9
:1007980014F052503C0DF3CF34F0F4CF35F05450F0
:1007A8000A0DF3503426F45035224F503426000EEB
:1007B8003522E00E3424406EF20E3520416E4CEFA7
:1007C80005F0390E5218D8A4ECEF03F0EEEF03F061
:1007D800FFEF03F0390E5418D8A4F5EF03F0F7EF44
:1007E80003F0FFEF03F0360E5560FDEF03F0FFEF67
:1007F80003F056EF04F052C051F054C052F055C007
:1008080054F04F50300F556E452A010E0D6E0B0EE9
:10081800FAEC10F0510E126E000E136E0FEC14F07D
:1008280051C00EF00F6A020E116E580E106ECCEC0D
:1008380014F052503C0DF3CF34F0F4CF35F054504F
:100848000A0DF3503426F45035220E5034260F503A
:1008580035224F503426000E3522600E3424406E67
:10086800820E3520416E4CEF05F04550346E356AE6
:100878003550000AD8B443EF04F04CEF05F034507B
:10088800000AD8B483EF03F0010AD8B497EF03F055
:10089800030AD8B4BAEF03F0010AD8B4E5EF03F0BD
:1008A8004CEF05F04CEF05F02A0E4F18D8A45FEF77
:1008B80004F061EF04F031EF05F040504110D8B476
:1008C80068EF04F06AEF04F04CEF05F05004D8A488
:1008D80070EF04F072EF04F04CEF05F04604D8A472
:1008E80078EF04F07AEF04F04CEF05F0040E456E53
:1008F800010E486E39EC15F0CD0E126E060E136E11
:100908000FEC14F0010E0D6E0B0EFAEC10F040C057
:1009180014F041C015F0020E176E580E166ED0EC8A
:1009280012F01450300F9FEC0BF0000E176E3C0EB7
:10093800166E40C014F041C015F0D0EC12F014C08F
:100948001BF015C01CF0000E1E6E0A0E1D6EADECDD
:1009580013F01B50300F9FEC0BF03A0E9FEC0BF08E
:10096800000E1E6E3C0E1D6E40C01BF041C01CF0F8
:10097800ADEC13F01BC014F01CC015F0000E176E80
:100988000A0E166ED0EC12F01450300F9FEC0BF0DC
:10099800000E1E6E3C0E1D6E40C01BF041C01CF0C8
:1009A800ADEC13F01BC036F01CC037F036C01BF09E
:1009B80037C01CF0000E1E6E0A0E1D6EADEC13F053
:1009C8001B50300F9FEC0BF0020E0D6E000EFAEC70
:1009D80010F0880E126E060E136E0FEC14F0020E55
:1009E8000D6E0E0EFAEC10F04450346E356A1B0E84
:1009F8003426000E352234C01FF035C020F0216A9D
:100A0800226ADEEC07F0030E0D6E000EFAEC10F011
:100A1800010E126E060E136E0FEC14F0780E126EA5
:100A2800060E136E0FEC14F0000EF0EC14F0050E29
:100A3800066E010E076E020E9AEC06F0070E066EA1
:100A4800010E076E010E9AEC06F04FEC15F04BEC18
:100A580015F04DEC15F04CEF05F0230E4F18D8A407
:100A680038EF05F03AEF05F04CEF05F0640E4E6EE6
:100A780004EC10F0300E516E300E526E300E546E83
:100A8800300E556E000E456E000E416E000E406E23
:100A980012000A6E78EF06F0080E066056EF05F0B1
:100AA80058EF05F089EF05F00704D8A45EEF05F0CC
:100AB80060EF05F070EF05F006C008F0010E096E52
:100AC800082A69EF05F0D8900936082E67EF05F077
:100AD8000950921299EF06F00750D8A476EF05F066
:100AE80078EF05F089EF05F006C008F0010E096EF1
:100AF800082A81EF05F0D8900936082E7FEF05F017
:100B08000950FF0A92166EEF05F099EF06F0080EED
:100B1800066091EF05F093EF05F089EF05F0070403
:100B2800D8A499EF05F09BEF05F0ABEF05F006C0F0
:100B380008F0010E096E082AA4EF05F0D8900936CE
:100B4800082EA2EF05F0095093126EEF05F007503A
:100B5800D8A4B1EF05F0B3EF05F089EF05F006C0B2
:100B680008F0010E096E082ABCEF05F0D890093686
:100B7800082EBAEF05F00950FF0A93166EEF05F03C
:100B8800080E0660CAEF05F0CCEF05F089EF05F016
:100B98000704D8A4D2EF05F0D4EF05F0E4EF05F090
:100BA80006C008F0010E096E082ADDEF05F0D8909E
:100BB8000936082EDBEF05F0095094126EEF05F0A8
:100BC8000750D8A4EAEF05F0ECEF05F089EF05F03F
:100BD80006C008F0010E096E082AF5EF05F0D89056
:100BE8000936082EF3EF05F00950FF0A94166EEF48
:100BF80005F0080E066003EF06F005EF06F089EF32
:100C080005F00704D8A40BEF06F00DEF06F01DEF72
:100C180006F006C008F0010E096E082A16EF06F065
:100C2800D8900936082E14EF06F0095095126EEF89
:100C380005F00750D8A423EF06F025EF06F089EF5A
:100C480005F006C008F0010E096E082A2EEF06F01E
:100C5800D8900936082E2CEF06F00950FF0A951691
:100C68006EEF05F0040E06603CEF06F03EEF06F06E
:100C780089EF05F00704D8A444EF06F046EF06F024
:100C880056EF06F006C008F0010E096E082A4FEF6D
:100C980006F0D8900936082E4DEF06F00950961246
:100CA8006EEF05F00750D8A45CEF06F05EEF06F093
:100CB80089EF05F0030E0618D8B465EF06F067EF64
:100CC80006F089EF05F006C008F0010E096E082A43
:100CD80070EF06F0D8900936082E6EEF06F009502E
:100CE800FF0A96166EEF05F00A50086E096A095059
:100CF800000AD8B482EF06F089EF05F00850000A20
:100D0800D8B450EF05F0010AD8B48BEF05F0030A08
:100D1800D8B4C4EF05F0010AD8B4FDEF05F0070A0E
:100D2800D8B436EF06F089EF05F012000A6EBCEF72
:100D380007F0080E0660A3EF06F0A5EF06F0D6EF61
:100D480006F00704D8A4ABEF06F0ADEF06F0BDEF50
:100D580006F006C008F0010E096E082AB6EF06F084
:100D6800D8900936082EB4EF06F009508912DDEF45
:100D780007F00750D8A4C3EF06F0C5EF06F0D6EF8A
:100D880006F006C008F0010E096E082ACEEF06F03C
:100D9800D8900936082ECCEF06F00950FF0A8916BC
:100DA800BBEF06F0DDEF07F0080E0660DEEF06F099
:100DB800E0EF06F0D6EF06F00704D8A4E6EF06F059
:100DC800E8EF06F0F8EF06F006C008F0010E096E2D
:100DD800082AF1EF06F0D8900936082EEFEF06F052
:100DE80009508A12BBEF06F00750D8A4FEEF06F0B0
:100DF80000EF07F0D6EF06F006C008F0010E096E06
:100E0800082A09EF07F0D8900936082E07EF07F0EF
:100E18000950FF0A8A16BBEF06F0080E066017EFA6
:100E280007F019EF07F0D6EF06F00704D8A41FEF74
:100E380007F021EF07F031EF07F006C008F0010EC8
:100E4800096E082A2AEF07F0D8900936082E28EFED
:100E580007F009508B12BBEF06F00750D8A437EF04
:100E680007F039EF07F0D6EF06F006C008F0010EDC
:100E7800096E082A42EF07F0D8900936082E40EF8D
:100E880007F00950FF0A8B16BBEF06F0080E066044
:100E980050EF07F052EF07F0D6EF06F00704D8A49A
:100EA80058EF07F05AEF07F06AEF07F006C008F0AE
:100EB800010E096E082A63EF07F0D8900936082E4C
:100EC80061EF07F009508C12BBEF06F00750D8A469
:100ED80070EF07F072EF07F0D6EF06F006C008F0E3
:100EE800010E096E082A7BEF07F0D8900936082E04
:100EF80079EF07F00950FF0A8C16BBEF06F0030ED6
:100F0800066089EF07F08BEF07F0D6EF06F00704CD
:100F1800D8A491EF07F093EF07F0A3EF07F006C00E
:100F280008F0010E096E082A9CEF07F0D8900936E0
:100F3800082E9AEF07F009508D12BBEF06F0075004
:100F4800D8A4A9EF07F0ABEF07F0D6EF06F006C07C
:100F580008F0010E096E082AB4EF07F0D890093698
:100F6800082EB2EF07F00950FF0A8D16BBEF06F006
:100F78000A50086E096A0950000AD8B4C6EF07F08B
:100F8800D6EF06F00850000AD8B49DEF06F0010A23
:100F9800D8B4D8EF06F0030AD8B411EF07F0010A65
:100FA800D8B44AEF07F0070AD8B483EF07F0D6EFB2
:100FB80006F012001F50201021102210D8A4E7EFCD
:100FC80007F0E9EF07F0EEEF07F0300E9FEC0BF0BB
:100FD800CBEF08F022BEF5EF07F0F3EF07F000EFD4
:100FE80008F0221E211E201E1F6C000E2022212226
:100FF80022222D0E9FEC0BF0000E2F6E1FC02BF03F
:1010080020C02CF021C02DF022C02EF0010E306E31
:10101800000E316E000E326E000E336E2FEF08F0A8
:101028002BC012F02CC013F02DC014F02EC015F0F8
:101038000A0E166E000E176E000E186E000E196E50
:1010480059EC10F012C02BF013C02CF014C02DF086
:1010580015C02EF02F2A2B502C102D102E10D8A48E
:1010680038EF08F03AEF08F014EF08F0000E2A6E97
:1010780059EF08F030C006F031C007F032C008F070
:1010880033C009F00A0E0A6E000E0B6E000E0C6ECD
:10109800000E0D6E78EC13F006C030F007C031F08A
:1010A80008C032F009C033F02A2AFF0E236EFF0E63
:1010B800246E2F50256E266A23502526245026227A
:1010C8002A50276E286A2550275C2850800A296EE6
:1010D8002650800A2958D8A074EF08F076EF08F057
:1010E8003EEF08F0C3EF08F01FC012F020C013F065
:1010F80021C014F022C015F030C016F031C017F02E
:1011080032C018F033C019F059EC10F01250300FFB
:101118009FEC0BF01FC006F020C007F021C008F0BC
:1011280022C009F030C00AF031C00BF032C00CF018
:1011380033C00DF0D3EC11F006C01FF007C020F04B
:1011480008C021F009C022F030C012F031C013F0FD
:1011580032C014F033C015F00A0E166E000E176E6A
:10116800000E186E000E196E59EC10F012C030F017
:1011780013C031F014C032F015C033F02F062F50D1
:10118800D8A4C9EF08F0CBEF08F078EF08F0120008
:10119800000E126E120E136E7A0E146E000E156E7D
:1011A8001FC023F020C024F021C025F022C026F063
:1011B800060ED8902336243625362636E82EDDEF5F
:1011C80008F023C016F024C017F025C018F026C078
:1011D80019F059EC10F01550141006E11304D8B0AA
:1011E800F8EF08F0FAEF08F08FEF09F0000E126E32
:1011F800120E136E7A0E146E000E156E1FC023F0B9
:1012080020C024F021C025F022C026F0020ED8907C
:101218002336243625362636E82E0BEF09F023C070
:1012280016F024C017F025C018F026C019F059ECA4
:1012380010F0FF0E1224276EFF0E1320286E000EEA
:10124800126E120E136E7A0E146E000E156E1FC0FB
:1012580016F020C017F021C018F022C019F059EC80
:1012680010F012C03AF013C03BF02804D8B03FEF9A
:1012780009F041EF09F048EF09F0000E3C6E2750E5
:1012880044EC15F08BEF09F027C023F028C024F0B8
:10129800D89024322332D890243223322404D8B070
:1012A80058EF09F05AEF09F071EF09F0D8903B3286
:1012B8003A32D8903B323A32010E3C6E27C023F0C6
:1012C80028C024F0D89024322332D89024322332F4
:1012D800235044EC15F08BEF09F03A3A3B3A0F0EE5
:1012E8003A163B50F00B3A120F0E3B16020E3C6EAC
:1012F80027C023F028C024F0040E256ED89024328D
:101308002332252E82EF09F0235044EC15F024EC0B
:1013180015F093EF09F0000E3B6E000E3A6E1200C6
:10132800096E000E0A6E2DEF0AF02A0E0A6E4AEFB9
:101338000AF0000E0A6E4AEF0AF0230E0A6E4AEF10
:101348000AF00650076E086A0850000AD8B4AFEFD2
:1013580009F04AEF0AF00750000AD8B499EF09F0EB
:10136800010AD8B49DEF09F0030AD8B4A1EF09F037
:101378004AEF0AF0070E0A6E4AEF0AF0080E0A6EE4
:101388004AEF0AF0090E0A6E4AEF0AF00650076E95
:10139800086A0850000AD8B4D4EF09F04AEF0AF0F6
:1013A8000750000AD8B4BEEF09F0010AD8B4C2EF5A
:1013B80009F0030AD8B4C6EF09F04AEF0AF0040EA0
:1013C8000A6E4AEF0AF0050E0A6E4AEF0AF0060E98
:1013D8000A6E4AEF0AF00650076E086A0850000ABB
:1013E800D8B4F9EF09F04AEF0AF00750000AD8B468
:1013F800E3EF09F0010AD8B4E7EF09F0030AD8B41B
:10140800EBEF09F04AEF0AF0010E0A6E4AEF0AF014
:10141800020E0A6E4AEF0AF0030E0A6E4AEF0AF04D
:101428000650076E086A0850000AD8B41EEF0AF082
:101438004AEF0AF00750000AD8B408EF0AF0010A88
:10144800D8B40CEF0AF0030AD8B410EF0AF04AEF48
:101458000AF00950076E086A0850000AD8B437EF36
:101468000AF04AEF0AF00750000AD8B4A5EF09F0CD
:10147800010AD8B4CAEF09F0030AD8B4EFEF09F0AB
:10148800010AD8B414EF0AF04AEF0AF00A50120021
:10149800096EDEEF0AF00F0EC112F7EF0AF00E0E1A
:1014A800C11251EF0AF00D0EC11251EF0AF00C0EE5
:1014B800C11251EF0AF00B0EC11251EF0AF0F7EF0B
:1014C8000AF00650076E086A0850000AD8B46FEF91
:1014D8000AF063EF0AF00750000AD8B44FEF0AF099
:1014E800010AD8B453EF0AF0030AD8B457EF0AF048
:1014F800010AD8B45BEF0AF0060AD8B45FEF0AF025
:1015080063EF0AF0030EC11251EF0AF0050EC11283
:1015180051EF0AF0070EC11251EF0AF0060EC11280
:1015280051EF0AF0C18451EF0AF00650076E086ABD
:101538000850000AD8B4A3EF0AF063EF0AF0075086
:10154800000AD8B486EF0AF0010AD8B48AEF0AF084
:10155800030AD8B48EEF0AF0010AD8B492EF0AF061
:10156800070AD8B496EF0AF063EF0AF00A0EC11220
:1015780051EF0AF0090EC11251EF0AF0C18651EF7E
:101588000AF00650076E086A0850000AD8B4CFEF70
:101598000AF063EF0AF00750000AD8B4BAEF0AF06D
:1015A800010AD8B4BEEF0AF0030AD8B4C2EF0AF0B1
:1015B80063EF0AF00950076E086A0850000AD8B4A9
:1015C800E8EF0AF063EF0AF00750000AD8B465EFB5
:1015D8000AF0010AD8B499EF0AF0050AD8B4C5EFA1
:1015E8000AF063EF0AF01200010E066E000E076E95
:1015F800020E9AEC06F0050E066E000E076E020E3D
:101608009AEC06F0070E066E000E076E010E9AECB5
:1016180006F0000EB6EC14F059EC15F055EC15F088
:1016280057EC15F03E503F10D8A41DEF0BF01FEFFC
:101638000BF060EF0BF0010E0D6E000EFAEC10F0DF
:10164800CD0E126E060E136E0FEC14F0010E0D6E19
:101658000B0EFAEC10F0D40E126E060E136E0FEC91
:1016680014F0230E126E060E136E0FEC14F0030E18
:101678000D6E000EFAEC10F0950E126E060E136E3B
:101688000FEC14F0040E0D6E050EFAEC10F0A20E1D
:10169800126E060E136E0FEC14F0010E0D6E0B0E8B
:1016A800FAEC10F0D40E126E060E136E0FEC14F056
:1016B8003E4A3F2A9EEF0BF03F5007E1FA0E3E5C90
:1016C800D8B069EF0BF06BEF0BF076EF0BF03E4AFA
:1016D8003F2A010E066E000E076E020E9AEC06F007
:1016E8009EEF0BF0FA0E3E183F10D8A47EEF0BF0D9
:1016F80080EF0BF084EF0BF039EC15F05CEF0BF09A
:10170800F40E3E5C010E3F58D8B08DEF0BF08FEF12
:101718000BF09AEF0BF03E4A3F2A010E066E010EBF
:10172800076E020E9AEC06F09EEF0BF0000E3F6E6D
:10173800000E3E6E1200116E100E4918D8A4A7EFC5
:101748000BF0A9EF0BF0B0EF0BF0020E0D6E000ED0
:10175800FAEC10F0E2EF0BF0200E4918D8A4B7EF1E
:101768000BF0B9EF0BF0C0EF0BF0030E0D6E000E8F
:10177800FAEC10F0E2EF0BF0300E4918D8A4C7EFDE
:101788000BF0C9EF0BF0D0EF0BF0040E0D6E000E4E
:10179800FAEC10F0E2EF0BF0400E4918D8A4D7EF9E
:1017A8000BF0D9EF0BF0E2EF0BF0000E496E010ED3
:1017B8000D6E000EFAEC10F0E2EF0BF0020E066E62
:1017C800010E076E040E9AEC06F0000E066E000E6F
:1017D800076E040E9AEC06F0010E066E010E076EF7
:1017E800040E9AEC06F011C006F0030E8DEC11F011
:1017F800010E066E000E076E040E9AEC06F0030E3C
:10180800E82EFED700F0010E066E010E076E040EDC
:101818009AEC06F0060EE82EFED700D0020E066EF1
:10182800010E076E040E9AEC06F0000E066E000E0E
:10183800076E040E9AEC06F0010E066E010E076E96
:10184800040E9AEC06F01138F00B066E030E8DECC0
:1018580011F0010E066E000E076E040E9AEC06F0EB
:10186800030EE82EFED700F0010E066E010E076E7D
:10187800040E9AEC06F0060EE82EFED700D0492A90
:101888001200010E066E000E4CEC0AF048EC15F042
:101898005BEC15F0050E066E000E076E020E4DECA1
:1018A80005F0010E066E000E076E020E4DEC05F0F7
:1018B800010E066E010E076E020E9AEC06F0070E78
:1018C800066E000E076E010E4DEC05F0070E066E53
:1018D800000E076E010E9AEC06F0040E066E010E5D
:1018E800076E010E4DEC05F0050E066E010E076E33
:1018F800010E4DEC05F061EC0EF0000E00EC15F059
:10190800B80E1F6E0B0E206E000E216E000E226E9A
:10191800CCEC08F0000EE5EC0CF0020E1CEC15F017
:10192800050E2BEC15F043EC13F0200E066E2A0E74
:10193800076E3FEC15F00AEC13F004EC10F0CAEF58
:101948000CF017EC12F046EC11F0ABEC10F074EC64
:1019580003F0CAEF0CF017EC12F0D6EC0EF058ECCE
:1019680012F040504110D8A4BCEF0CF0BEEF0CF0C0
:10197800CAEF0CF0020E486E39EC15F0CAEF0CF005
:10198800F8EC0AF0DFEC13F0CAEF0CF04850386EB0
:10199800396A3950000AD8B4D4EF0CF0CAEF0CF009
:1019A8003850000AD8B4A5EF0CF0010AD8B4AFEF4C
:1019B8000CF0030AD8B4C4EF0CF0CAEF0CF007EF30
:1019C80000F0086EC30EC2160844E846FC0BC212AB
:1019D800F00EC1162EEF0DF00E0EC11292806FEFB1
:1019E8000DF00D0EC11292826FEF0DF00C0EC112A8
:1019F80092846FEF0DF00B0EC11292866FEF0DF00F
:101A08000A0EC112928A6FEF0DF0090EC11296806C
:101A18006FEF0DF0C18696826FEF0DF0070EC112C1
:101A280096846FEF0DF0060EC11293846FEF0DF0E0
:101A3800050EC11293866FEF0DF0C18493826FEF8C
:101A48000DF0030EC11293886FEF0DF0C1829380E1
:101A58006FEF0DF00850066E076A0750000AD8B4F9
:101A680038EF0DF06FEF0DF00650000AD8B4F0EF24
:101A78000CF0010AD8B4F5EF0CF0030AD8B4FAEF69
:101A88000CF0010AD8B4FFEF0CF0070AD8B404EF41
:101A98000DF0010AD8B409EF0DF0030AD8B40EEF1F
:101AA8000DF0010AD8B412EF0DF00F0AD8B417EFF1
:101AB8000DF0010AD8B41CEF0DF0030AD8B421EFD9
:101AC8000DF0010AD8B425EF0DF0070AD8B42AEFB3
:101AD8000DF06FEF0DF01200096E0A68C9EF0DF0F6
:101AE80006C007F080CF08F0072A7DEF0DF0D890E8
:101AF8000832072E7BEF0DF00850010B0A6EEAEF53
:101B08000DF006C007F081CF08F0072A8EEF0DF020
:101B1800D8900832072E8CEF0DF00850010B0A6E92
:101B2800EAEF0DF006C007F082CF08F0072A9FEF12
:101B38000DF0D8900832072E9DEF0DF00850010BDC
:101B48000A6EEAEF0DF006C007F083CF08F0072A07
:101B5800B0EF0DF0D8900832072EAEEF0DF0085018
:101B6800010B0A6EEAEF0DF006C007F084CF08F00B
:101B7800072AC1EF0DF0D8900832072EBFEF0DF0FD
:101B88000850010B0A6EEAEF0DF00950076E086A5B
:101B98000850000AD8B4D3EF0DF0EAEF0DF0075063
:101BA800000AD8B474EF0DF0010AD8B485EF0DF02F
:101BB800030AD8B496EF0DF0010AD8B4A7EF0DF0D8
:101BC800070AD8B4B8EF0DF0EAEF0DF00A5012008A
:101BD800226E3AC006F03BC007F0086A096A1F5037
:101BE8000A6E0B6A0C6A0D6A78EC13F006C012F0E4
:101BF80007C013F008C014F009C015F0640E166E83
:101C0800000E176E000E186E000E196E59EC10F0CB
:101C180012C023F013C024F02250D8A416EF0EF0FF
:101C280018EF0EF03CEF0EF023A01DEF0EF01FEFA3
:101C38000EF022EF0EF0BD8823EF0EF0BD9823A220
:101C480028EF0EF02AEF0EF02DEF0EF0BD8A2EEFE2
:101C58000EF0BD9A23C020F024C021F0D890213284
:101C68002032D890213220322050BE6E5EEF0EF026
:101C780023A041EF0EF043EF0EF046EF0EF0BA88C6
:101C880047EF0EF0BA9823A24CEF0EF04EEF0EF08D
:101C980051EF0EF0BA8A52EF0EF0BA9A23C020F034
:101CA80024C021F0D89021322032D890213220321D
:101CB8002050BB6E51EC15F01200040E066E000E9B
:101CC800076E030E4DEC05F0050E066E000E076E4E
:101CD800030E4DEC05F0060E066E000E076E030EA1
:101CE8004DEC05F0070E066E000E076E030E4DEC68
:101CF80005F0020E066E000E076E040E4DEC05F0A0
:101D0800000E066E000E076E040E4DEC05F0010E77
:101D1800066E000E076E040E4DEC05F0020E066E00
:101D2800000E076E040E9AEC06F0000E066E000E0A
:101D3800076E040E9AEC06F0010E066E010E076E91
:101D4800040E9AEC06F0280E066E030E8DEC11F0C8
:101D5800010E066E000E076E040E9AEC06F0030ED6
:101D6800E82EFED700F0010E066E010E076E040E77
:101D78009AEC06F0060EE82EFED700D0280E43ECAB
:101D88000FF000D00C0E43EC0FF000D0010E43EC26
:101D98000FF00A0EE82EFED7060E43EC0FF000D027
:101DA80000D012004704D8A4DCEF0EF0DEEF0EF0EE
:101DB80042EF0FF0000E476E010E0D6E0B0EFAEC9F
:101DC80010F040C014F041C015F0020E176E580E06
:101DD800166ED0EC12F01450300F9FEC0BF0000E82
:101DE800176E3C0E166E40C014F041C015F0D0ECD2
:101DF80012F014C01BF015C01CF0000E1E6E0A0E67
:101E08001D6EADEC13F01B50300F9FEC0BF03A0E2B
:101E18009FEC0BF0000E1E6E3C0E1D6E40C01BF0BA
:101E280041C01CF0ADEC13F01BC014F01CC015F041
:101E3800000E176E0A0E166ED0EC12F01450300F0A
:101E48009FEC0BF0000E1E6E3C0E1D6E40C01BF08A
:101E580041C01CF0ADEC13F01BC020F01CC021F0F9
:101E680020C01BF021C01CF0000E1E6E0A0E1D6E55
:101E7800ADEC13F01B50300F9FEC0BF012000C6E02
:101E8800020E066E000E076E040E9AEC06F0000EA7
:101E9800066E000E076E040E9AEC06F0010E066E32
:101EA800010E076E040E9AEC06F00CC006F0030E45
:101EB8008DEC11F0010E066E000E076E040E9AEC02
:101EC80006F0030EE82EFED700F0010E066E010E96
:101ED800076E040E9AEC06F0060EE82EFED700D028
:101EE800020E066E000E076E040E9AEC06F0000E47
:101EF800066E000E076E040E9AEC06F0010E066ED2
:101F0800010E076E040E9AEC06F00C38F00B066E04
:101F1800030E8DEC11F0010E066E000E076E040E16
:101F28009AEC06F0030EE82EFED700F0010E066EBE
:101F3800010E076E040E9AEC06F0060EE82EFED788
:101F480000D012000A0E0D6E000E0E6E0EC006F0C6
:101F5800000E076E030E9AEC06F0000E0F6E0FC00F
:101F680006F0010E70EC0DF00009D8A4BEEF0FF0DA
:101F7800C0EF0FF0E9EF0FF01A0E0C6EF80EE82E16
:101F8800FED70C2EFCD700D00FC006F0010E70EC67
:101F98000DF00009D8A4D3EF0FF0D5EF0FF0E9EF5B
:101FA8000FF00FC006F0010E70EC0DF00009D8B468
:101FB800E0EF0FF0E2EF0FF0D5EF0FF00FC006F0F3
:101FC8000E5094EC09F003EF10F00F2A020E0F6484
:101FD800F0EF0FF0F2EF0FF0B3EF0FF00EC006F0D6
:101FE800010E076E030E9AEC06F00E2A030E0E641D
:101FF80000EF10F002EF10F0AAEF0FF00D501200F2
:1020080039EC15F0DA0E126E060E136E0FEC14F0A2
:10201800010E0D6E0B0EFAEC10F0E00E126E060EAD
:10202800136E0FEC14F0020E0D6E000EFAEC10F0A9
:10203800880E126E060E136E0FEC14F0030E0D6E62
:10204800000EFAEC10F05004D8A42DEF10F02FEF8A
:1020580010F037EF10F0450E126E060E136E0FECEF
:1020680014F03DEF10F0340E126E060E136E0FECE6
:1020780014F0040E0D6E000EFAEC10F04650D8A4C1
:1020880048EF10F04AEF10F052EF10F0670E126EA2
:10209800060E136E0FEC14F058EF10F0560E126E79
:1020A800060E136E0FEC14F01200000E1A6E000EDE
:1020B8001B6E000E1C6E000E1D6E165017101810A9
:1020C8001910D8B46AEF10F06CEF10F0A2EF10F00E
:1020D800010E1E6E76EF10F0D890163617361836A9
:1020E80019361E2A19AE7BEF10F07DEF10F070EF55
:1020F80010F0D8901A361B361C361D361650125C56
:10210800175013581850145819501558D8A08FEF55
:1021180010F091EF10F09AEF10F01650125E175071
:10212800135A1850145A1950155A1A80D89019323F
:102138001832173216321E2E7DEF10F01AC012F028
:102148001BC013F01CC014F01DC015F01200505035
:10215800D8A4B1EF10F0B3EF10F0F9EF10F0050EBE
:10216800066E010E70EC0DF00009D8A4BEEF10F059
:10217800C0EF10F0F9EF10F01A0E146EF80EE82EFA
:10218800FED7142EFCD700D0050E066E010E70EC9B
:102198000DF00009D8B4D3EF10F0D5EF10F0C8EF68
:1021A80010F04650D8A4DBEF10F0DDEF10F0ECEFA4
:1021B80010F0010E466E040E0D6E0A0EFAEC10F0C9
:1021C800600E126E060E136E0FEC14F0F9EF10F09D
:1021D800000E466E040E0D6E0A0EFAEC10F0710E2B
:1021E800126E060E136E0FEC14F01200106E100E25
:1021F800106001EF11F003EF11F045EF11F028EF37
:1022080011F01050800F43EC0FF010C049F045EF6B
:1022180011F01050C00F43EC0FF01050100F496E22
:1022280045EF11F01050900F43EC0FF01050200FB5
:10223800496E45EF11F01050D00F43EC0FF01050DD
:10224800300F496E45EF11F00D500E6E0F6A0F50AA
:10225800000AD8B432EF11F045EF11F00E50010A20
:10226800D8B405EF11F0030AD8B40DEF11F0010A44
:10227800D8B416EF11F0070AD8B41FEF11F045EFE4
:1022880011F01200040E066E010E70EC0DF000093C
:10229800D8A451EF11F053EF11F08CEF11F01A0E92
:1022A800146EF80EE82EFED7142EFCD700D0040EBC
:1022B800066E010E70EC0DF00009D8B466EF11F04F
:1022C80068EF11F05BEF11F05004D8A46EEF11F035
:1022D80070EF11F07FEF11F0000E506E030E0D6ECF
:1022E8000A0EFAEC10F03E0E126E060E136E0FEC8C
:1022F80014F08CEF11F0010E506E030E0D6E0A0EE5
:10230800FAEC10F04F0E126E060E136E0FEC14F06E
:1023180012000A6EB1EF11F0000E896E0650891294
:10232800D2EF11F0000E8A6E06508A12D2EF11F029
:10233800000E8B6E06508B12D2EF11F0000E8C6ED1
:1023480006508C12D2EF11F0F80E8D160650070BBE
:102358008D12D2EF11F0D2EF11F00A50076E086A11
:102368000850000AD8B4BBEF11F0AFEF11F00750D6
:10237800000AD8B490EF11F0010AD8B496EF11F022
:10238800030AD8B49CEF11F0010AD8B4A2EF11F0F7
:10239800070AD8B4A8EF11F0AFEF11F012000A50F5
:1023A8000B100C100D10D8B4DCEF11F0DEEF11F0AB
:1023B8000EEF12F0010E0E6EE8EF11F0D8900A360B
:1023C8000B360C360D360E2A0DAEEDEF11F0EFEF91
:1023D80011F0E2EF11F00A50065C0B5007580C5050
:1023E80008580D500958D8A0FCEF11F0FEEF11F075
:1023F80006EF12F00A50065E0B50075A0C50085AA6
:102408000D50095AD8900D320C320B320A320E2E6A
:10241800EFEF11F006C006F007C007F008C008F09B
:1024280009C009F0120053EC15F096EC12F006C042
:102438000EF007C00FF0000E116E320E106ECCECCD
:1024480014F00EC014F00FC015F0030E176E1668C6
:10245800D0EC12F01450446E44504E18D8B437EFF4
:1024680012F039EF12F057EF12F04450FE0DF3500E
:10247800640F1F6E000EECEC0DF0020E0D6E0E0ECA
:10248800FAEC10F04450346E356A1B0E3426000EF8
:10249800352234C01FF035C020F0216A226ADEECF4
:1024A80007F044C04EF012006DEC14F0A6EC0FF0EB
:1024B8004F6E230E4F18D8A464EF12F066EF12F097
:1024C80095EF12F0000E486E050E066E000E076EB0
:1024D800020E9AEC06F0070E066E000E076E010E4D
:1024E8009AEC06F059EC15F055EC15F057EC15F090
:1024F800000EB6EC14F0030E0D6E000EFAEC10F0A0
:10250800450E126E060E136E0FEC14F0040E0D6ECF
:10251800000EFAEC10F0560E126E060E136E0FEC4B
:1025280014F01200C2CF08F0D890083208B09FEF1C
:1025380012F0A1EF12F096EF12F0086AC0AE01D0C7
:10254800082A08A0AAEF12F0ACEF12F0B4EF12F0CC
:10255800C450086EC3500C6E08C00DF0CBEF12F0DB
:10256800C3CF08F0060E096ED8900832092EB8EFCE
:1025780012F00850C4CF0AF00B6AD8900A360B360E
:10258800D8900A360B360A100C6E0B500D6E0CC024
:1025980006F00DC007F01200000E196E000E186E3E
:1025A80016501710D8B4DBEF12F0DDEF12F005EF7C
:1025B80013F0010E1A6EE5EF12F0D89016361736A2
:1025C8001A2A17AEEAEF12F0ECEF12F0E1EF12F070
:1025D800D890183619361650145C17501558D8A0CC
:1025E800F8EF12F0FAEF12F0FFEF12F01650145E47
:1025F8001750155A1880D890173216321A2EECEF49
:1026080012F018C014F019C015F01200010E0D6E6A
:10261800030EFAEC10F0AE0E126E060E136E0FECEF
:1026280014F0020E0D6E000EFAEC10F0120E126E7F
:10263800060E136E0FEC14F0030E0D6E000EFAEC7E
:1026480010F0B90E126E060E136E0FEC14F0040E95
:102658000D6E070EFAEC10F0C30E126E060E136E16
:102668000FEC14F0150E156E4B0E146EBE0EE82E00
:10267800FED7142EFCD7152EFAD700D012004B50D7
:10268800D8A449EF13F04BEF13F04EEF13F0D58CAD
:102698004FEF13F0D59C4C50D8A455EF13F057EFDB
:1026A80013F05AEF13F0D59A5BEF13F0D58A4C501C
:1026B800D8B461EF13F063EF13F067EF13F0D59818
:1026C8004D38F00BD512080E4A18D8B46EEF13F037
:1026D80070EF13F076EF13F0F00ED5164A50D512BE
:1026E80077EF13F0D5861200000E0E6E000E0F6EF7
:1026F800000E106E000E116E06A085EF13F087EF26
:1027080013F08FEF13F00A500E260B500F220C50C7
:1027180010220D501122D8900A360B360C360D3681
:10272800D8900932083207320632065007100810CE
:102738000910D8A4A2EF13F0A4EF13F080EF13F060
:102748000EC006F00FC007F010C008F011C009F065
:1027580012001D501E10D8B4B4EF13F0B6EF13F0EA
:10276800DAEF13F0010E1F6EBEEF13F0D8901D368E
:102778001E361F2A1EAEC3EF13F0C5EF13F0BAEFD3
:1027880013F01D501B5C1E501C58D8A0CEEF13F040
:10279800D0EF13F0D4EF13F01D501B5E1E501C5ADF
:1027A800D8901E321D321F2EC5EF13F01BC01BF030
:1027B8001CC01CF0120046EC11F06DEC14F0A6ECF5
:1027C8000FF0230AD8B4EBEF13F0EDEF13F0F5EFA9
:1027D80013F05050D8A4F3EF13F0F5EF13F00EEF09
:1027E80014F0000E486E010E066E010E076E020E02
:1027F8009AEC06F039EC15F0640E4E6E04EC10F00D
:10280800300E516E300E526E300E546E300E556EC4
:10281800000E456E120025EF14F012C0F6FF13C02B
:10282800F7FFF86A050EF76403D00800F55005D0E5
:10283800F6CFE9FFF7CFEAFFEF509FEC0BF0124A13
:10284800132A12C0F6FF13C0F7FFF86A050EF764E3
:1028580003D00800F55005D0F6CFE9FFF7CFEAFF1F
:10286800EF500009D8A43BEF14F03DEF14F011EF3E
:1028780014F012000600FACF04F0FBCF05F0F2CFF7
:1028880003F0D8900332D890033203A04EEF14F02F
:1028980050EF14F067EF14F042504310D8B457EFDC
:1028A80014F059EF14F066EF14F002D866EF14F044
:1028B8000500FA6E4250FD6E4350FE6EF850FF6EF2
:1028C800FA501200F29405C0FBFF04C0FAFF5792B9
:1028D8001100000E0D6E0DC006F0000E076E030EFF
:1028E8004DEC05F00DC006F0010E076E030E9AECD4
:1028F80006F00D2A030E0D6484EF14F086EF14F031
:102908006FEF14F0000E0C6E0CC006F0010E076E8F
:10291800010E4DEC05F00C2A020E0C6496EF14F033
:1029280098EF14F088EF14F01200640EF66E2A0E79
:10293800F76E000EF86E00EE4AF010EE0DF009008A
:10294800F5CFEEFFE550E150FAE100EE3AF0100E57
:10295800EE6AE806FDE157905792000EF86E000106
:1029680045EF0CF0066E0650D8A4BDEF14F0BFEF8B
:1029780014F0C6EF14F0BD96BD94BD92BD908B9433
:10298800CBEF14F0BA96BA94BA92BA908B9212001E
:102998000E501002F3CF12F0F4CF13F00E501102C4
:1029A800F35013260F501002F350132612C00EF0E6
:1029B80013C00FF012004B50D8A4E5EF14F0E7EF66
:1029C80014F0EBEF14F001C0D6FFEFEF14F0025053
:1029D800D76EE7EF14F01200066E0650D8A4F7EF92
:1029E80014F0F9EF14F0FDEF14F0BD86BD84FFEF8D
:1029F80014F0BA86BA841200066E000E3D6E0650B8
:102A0800D8A409EF15F00BEF15F00EEF15F094941C
:102A18000FEF15F0949212000B0E026EDD0E016E90
:102A2800DFEC14F04006D8A04106010E476E1200F4
:102A3800066EC70EC0160638E842F80BC012120020
:102A48003D38E842F80BCA6E3C50CA121200066EB6
:102A5800F80EC0160650C012C2801200040100020F
:092A6800640A0130303A303000FC
:102A7200010E43EC0FF0000E496E120006C042F048
:102A820007C043F01200066E06C0CBFF1200070E0D
:102A9200B4121200F28A1200D58E1200F28E1200C7
:102AA200CA841200C2821200F29A1200D59E12004B
:082AB200F29E1200F19E1200D9
:020000040020DA
:08000000FFFFFFFFFFFFFFFF00
:020000040030CA
:0E000000FF071F1EFF0085FF0FC00FE00F401F
:00000001FF
